{
  "_format": "hh-sol-artifact-1",
  "contractName": "Listing",
  "sourceName": "contracts/v1/Listing.sol",
  "abi": [
    {
      "inputs": [
        {
          "internalType": "address",
          "name": "_validator",
          "type": "address"
        },
        {
          "internalType": "address",
          "name": "_owner",
          "type": "address"
        },
        {
          "internalType": "uint256",
          "name": "_listingId",
          "type": "uint256"
        }
      ],
      "stateMutability": "nonpayable",
      "type": "constructor"
    },
    {
      "inputs": [
        {
          "internalType": "uint256",
          "name": "_optionId",
          "type": "uint256"
        }
      ],
      "name": "claimReward",
      "outputs": [],
      "stateMutability": "nonpayable",
      "type": "function"
    },
    {
      "inputs": [],
      "name": "dailyPayment",
      "outputs": [
        {
          "internalType": "uint256",
          "name": "",
          "type": "uint256"
        }
      ],
      "stateMutability": "view",
      "type": "function"
    },
    {
      "inputs": [
        {
          "internalType": "uint256",
          "name": "_amount",
          "type": "uint256"
        }
      ],
      "name": "extendOwnership",
      "outputs": [],
      "stateMutability": "nonpayable",
      "type": "function"
    },
    {
      "inputs": [],
      "name": "listingId",
      "outputs": [
        {
          "internalType": "uint256",
          "name": "",
          "type": "uint256"
        }
      ],
      "stateMutability": "view",
      "type": "function"
    },
    {
      "inputs": [
        {
          "internalType": "uint256",
          "name": "",
          "type": "uint256"
        }
      ],
      "name": "options",
      "outputs": [
        {
          "internalType": "uint256",
          "name": "_totalStake",
          "type": "uint256"
        },
        {
          "internalType": "uint256",
          "name": "_reward",
          "type": "uint256"
        },
        {
          "internalType": "bool",
          "name": "_isSet",
          "type": "bool"
        }
      ],
      "stateMutability": "view",
      "type": "function"
    },
    {
      "inputs": [],
      "name": "owner",
      "outputs": [
        {
          "internalType": "address",
          "name": "",
          "type": "address"
        }
      ],
      "stateMutability": "view",
      "type": "function"
    },
    {
      "inputs": [],
      "name": "ownership",
      "outputs": [
        {
          "internalType": "uint256",
          "name": "",
          "type": "uint256"
        }
      ],
      "stateMutability": "view",
      "type": "function"
    },
    {
      "inputs": [
        {
          "internalType": "uint256",
          "name": "_amount",
          "type": "uint256"
        },
        {
          "internalType": "uint256",
          "name": "_optionId",
          "type": "uint256"
        }
      ],
      "name": "register",
      "outputs": [],
      "stateMutability": "nonpayable",
      "type": "function"
    },
    {
      "inputs": [],
      "name": "rewardPool",
      "outputs": [
        {
          "internalType": "uint256",
          "name": "",
          "type": "uint256"
        }
      ],
      "stateMutability": "view",
      "type": "function"
    },
    {
      "inputs": [
        {
          "internalType": "uint256",
          "name": "_optionId",
          "type": "uint256"
        },
        {
          "internalType": "uint256",
          "name": "_reward",
          "type": "uint256"
        }
      ],
      "name": "setupOptionReward",
      "outputs": [],
      "stateMutability": "nonpayable",
      "type": "function"
    },
    {
      "inputs": [
        {
          "internalType": "uint256",
          "name": "",
          "type": "uint256"
        },
        {
          "internalType": "address",
          "name": "",
          "type": "address"
        }
      ],
      "name": "stakings",
      "outputs": [
        {
          "internalType": "uint256",
          "name": "_start",
          "type": "uint256"
        },
        {
          "internalType": "uint256",
          "name": "_amount",
          "type": "uint256"
        },
        {
          "internalType": "bool",
          "name": "_active",
          "type": "bool"
        }
      ],
      "stateMutability": "view",
      "type": "function"
    },
    {
      "inputs": [],
      "name": "tokenContract",
      "outputs": [
        {
          "internalType": "address",
          "name": "",
          "type": "address"
        }
      ],
      "stateMutability": "view",
      "type": "function"
    },
    {
      "inputs": [],
      "name": "totalStake",
      "outputs": [
        {
          "internalType": "uint256",
          "name": "",
          "type": "uint256"
        }
      ],
      "stateMutability": "view",
      "type": "function"
    },
    {
      "inputs": [
        {
          "internalType": "uint256",
          "name": "_optionId",
          "type": "uint256"
        }
      ],
      "name": "unregister",
      "outputs": [],
      "stateMutability": "nonpayable",
      "type": "function"
    },
    {
      "inputs": [
        {
          "internalType": "uint256",
          "name": "_dailyPayment",
          "type": "uint256"
        }
      ],
      "name": "updateDailyPayment",
      "outputs": [],
      "stateMutability": "nonpayable",
      "type": "function"
    },
    {
      "inputs": [
        {
          "internalType": "address",
          "name": "_newOwner",
          "type": "address"
        }
      ],
      "name": "updateOwner",
      "outputs": [],
      "stateMutability": "nonpayable",
      "type": "function"
    },
    {
      "inputs": [
        {
          "internalType": "address",
          "name": "_validator",
          "type": "address"
        }
      ],
      "name": "updateValidator",
      "outputs": [],
      "stateMutability": "nonpayable",
      "type": "function"
    },
    {
      "inputs": [
        {
          "internalType": "uint256",
          "name": "_value",
          "type": "uint256"
        }
      ],
      "name": "updateValue",
      "outputs": [],
      "stateMutability": "nonpayable",
      "type": "function"
    },
    {
      "inputs": [
        {
          "internalType": "address",
          "name": "_worker",
          "type": "address"
        }
      ],
      "name": "updateWorker",
      "outputs": [],
      "stateMutability": "nonpayable",
      "type": "function"
    },
    {
      "inputs": [
        {
          "internalType": "uint256",
          "name": "_listingId",
          "type": "uint256"
        }
      ],
      "name": "updatelistingId",
      "outputs": [],
      "stateMutability": "nonpayable",
      "type": "function"
    },
    {
      "inputs": [],
      "name": "validator",
      "outputs": [
        {
          "internalType": "address",
          "name": "",
          "type": "address"
        }
      ],
      "stateMutability": "view",
      "type": "function"
    },
    {
      "inputs": [],
      "name": "value",
      "outputs": [
        {
          "internalType": "uint256",
          "name": "",
          "type": "uint256"
        }
      ],
      "stateMutability": "view",
      "type": "function"
    },
    {
      "inputs": [
        {
          "internalType": "uint256",
          "name": "_amount",
          "type": "uint256"
        }
      ],
      "name": "withdraw",
      "outputs": [],
      "stateMutability": "nonpayable",
      "type": "function"
    },
    {
      "inputs": [
        {
          "internalType": "address",
          "name": "",
          "type": "address"
        }
      ],
      "name": "workers",
      "outputs": [
        {
          "internalType": "bool",
          "name": "",
          "type": "bool"
        }
      ],
      "stateMutability": "view",
      "type": "function"
    }
  ],
  "bytecode": "0x608060405234801561001057600080fd5b50604051620017523803806200175283398101604081905261003191610095565b600080546001600160a01b039384166001600160a01b0319918216179091556002805494909316938116939093179091556001554260045560038054909116331790556100d1565b80516001600160a01b038116811461009057600080fd5b919050565b6000806000606084860312156100aa57600080fd5b6100b384610079565b92506100c160208501610079565b9150604084015190509250925092565b61167180620000e16000396000f3fe608060405234801561001057600080fd5b50600436106101585760003560e01c80635d03147a116100c35780638da5cb5b1161007c5780638da5cb5b146103345780639405dfdd14610347578063a02b161e14610350578063a5edfb5314610363578063ae169a5014610376578063d66d6c101461038957600080fd5b80635d03147a146102e0578063635b2770146102e957806366666aa9146102fc57806380e4cc9d14610305578063880cdc31146103185780638b0e9f3f1461032b57600080fd5b8063409e220511610115578063409e2205146102595780634338fbaa1461028b578063506f50bc1461029457806354a49902146102a757806355a373d6146102ba578063573c0bd3146102cd57600080fd5b8063103a62ba1461015d5780632a421332146101725780632e1a7d4d146101d15780633a5381b5146101e45780633fa4f2451461020f5780634048a25714610226575b600080fd5b61017061016b366004611448565b61039c565b005b6101af61018036600461147d565b600960209081526000928352604080842090915290825290208054600182015460029092015490919060ff1683565b6040805193845260208401929092521515908201526060015b60405180910390f35b6101706101df366004611448565b6103d4565b6002546101f7906001600160a01b031681565b6040516001600160a01b0390911681526020016101c8565b61021860055481565b6040519081526020016101c8565b6102496102343660046114a9565b60076020526000908152604090205460ff1681565b60405190151581526020016101c8565b6101af610267366004611448565b60086020526000908152604090208054600182015460029092015490919060ff1683565b61021860065481565b6101706102a2366004611448565b610609565b6101706102b53660046114c4565b610638565b6003546101f7906001600160a01b031681565b6101706102db366004611448565b6106db565b61021860045481565b6101706102f73660046114a9565b61070a565b610218600a5481565b6101706103133660046114a9565b610756565b6101706103263660046114a9565b610861565b610218600b5481565b6000546101f7906001600160a01b031681565b61021860015481565b61017061035e366004611448565b6108f7565b610170610371366004611448565b610aee565b610170610384366004611448565b610cf9565b6101706103973660046114c4565b610f5e565b6002546001600160a01b031633146103cf5760405162461bcd60e51b81526004016103c6906114e6565b60405180910390fd5b600655565b6000546001600160a01b031633146103fe5760405162461bcd60e51b81526004016103c6906114e6565b4260045410156104505760405162461bcd60e51b815260206004820152601b60248201527f4c697374696e673a204f776e657273686970206578706972656421000000000060448201526064016103c6565b60065460009061046d906104678462015180611318565b9061132b565b905060006104868260045461133790919063ffffffff16565b9050428110156104d85760405162461bcd60e51b815260206004820152601860248201527f4c697374696e673a20496e76616c696420616d6f756e7421000000000000000060448201526064016103c6565b60035460405163e9dc65bb60e01b815233600482015260248101859052600060448201819052916001600160a01b03169063e9dc65bb906064016020604051808303816000875af1158015610531573d6000803e3d6000fd5b505050506040513d601f19601f820116820180604052508101906105559190611520565b9050806105745760405162461bcd60e51b81526004016103c69061153b565b600a546105819085611337565b600a5560035460005460048054604051637602f0f160e01b81526001600160a01b039384169281019290925260248201889052604482015260648101859052911690637602f0f190608401600060405180830381600087803b1580156105e657600080fd5b505af11580156105fa573d6000803e3d6000fd5b50505060049290925550505050565b6002546001600160a01b031633146106335760405162461bcd60e51b81526004016103c6906114e6565b600155565b6002546001600160a01b031633146106625760405162461bcd60e51b81526004016103c6906114e6565b60648111156106b35760405162461bcd60e51b815260206004820152601d60248201527f4c697374696e673a20496e76616c6964207265776172642076616c756500000060448201526064016103c6565b600091825260086020526040909120600180820192909255600201805460ff19169091179055565b6002546001600160a01b031633146107055760405162461bcd60e51b81526004016103c6906114e6565b600555565b6002546001600160a01b031633146107345760405162461bcd60e51b81526004016103c6906114e6565b600280546001600160a01b0319166001600160a01b0392909216919091179055565b6000546001600160a01b031633146107805760405162461bcd60e51b81526004016103c6906114e6565b4260045410156107d25760405162461bcd60e51b815260206004820152601a60248201527f4c697374696e673a204f776e657273686970206578706972656400000000000060448201526064016103c6565b6001600160a01b0381811660008181526007602052604090819020805460ff8082161560ff19909216821790925560035492516333be8f3d60e21b8152600481019490945216151560248301529091169063cefa3cf490604401600060405180830381600087803b15801561084657600080fd5b505af115801561085a573d6000803e3d6000fd5b5050505050565b6002546001600160a01b0316331461088b5760405162461bcd60e51b81526004016103c6906114e6565b42600454106108d55760405162461bcd60e51b81526020600482015260166024820152754f776e657273686970206e6f7420657870697265642160501b60448201526064016103c6565b600080546001600160a01b0319166001600160a01b0392909216919091179055565b60035460405163e6d50cd760e01b81523060048201526000916001600160a01b03169063e6d50cd7906024016040805180830381865afa15801561093f573d6000803e3d6000fd5b505050506040513d601f19601f820116820180604052508101906109639190611572565b915050806109b35760405162461bcd60e51b815260206004820152601a60248201527f4c697374696e673a20496e616374697665206c697374696e672100000000000060448201526064016103c6565b60008281526009602090815260408083203384529091529020600281015460ff16610a1b5760405162461bcd60e51b81526020600482015260186024820152774c697374696e673a2052656769737465722066697273742160401b60448201526064016103c6565b600181015415610a2e57610a2e83610cf9565b6001810154600084815260086020526040902054610a4b91611337565b6000848152600860205260409020556001810154600b54610a6b91611337565b600b5560006001820181905560028201805460ff1916905581556003546040516387d4535160e01b8152336004820152602481018590526001600160a01b03909116906387d4535190604401600060405180830381600087803b158015610ad157600080fd5b505af1158015610ae5573d6000803e3d6000fd5b50505050505050565b6000546001600160a01b0316331480610b08575042600454105b610b245760405162461bcd60e51b81526004016103c6906114e6565b60035460405163e9dc65bb60e01b815233600482015260248101839052600160448201526000916001600160a01b03169063e9dc65bb906064016020604051808303816000875af1158015610b7d573d6000803e3d6000fd5b505050506040513d601f19601f82011682018060405250810190610ba19190611520565b905080610bc05760405162461bcd60e51b81526004016103c69061153b565b600654821015610c125760405162461bcd60e51b815260206004820152601d60248201527f4c697374696e673a20496e73756666696369656e7420616d6f756e742100000060448201526064016103c6565b6004546000546001600160a01b031642821015610c3f57600080546001600160a01b031916331790554291505b600a54610c4c9085611343565b600a55600654610c6e90610c67906104678762015180611318565b8390611343565b6004818155600354600054604051631b33557760e01b81526001600160a01b03868116948201949094529083166024820152604481018690526064810193909352608483018790521690631b3355779060a401600060405180830381600087803b158015610cdb57600080fd5b505af1158015610cef573d6000803e3d6000fd5b5050505050505050565b60008181526009602090815260408083203384529091529020600281015460ff16610d615760405162461bcd60e51b81526020600482015260186024820152774c697374696e673a2052656769737465722066697273742160401b60448201526064016103c6565b6003546040516370a0823160e01b81523360048201526000916001600160a01b0316906370a0823190602401602060405180830381865afa158015610daa573d6000803e3d6000fd5b505050506040513d601f19601f82011682018060405250810190610dce919061159c565b90508160010154811015610e245760405162461bcd60e51b815260206004820152601e60248201527f4c697374696e673a20496e73756666696369656e742062616c616e636521000060448201526064016103c6565b6000610e30848461134f565b60035460405163e9dc65bb60e01b8152336004820152602481018390526000604482018190529293506001600160a01b039091169063e9dc65bb906064016020604051808303816000875af1158015610e8d573d6000803e3d6000fd5b505050506040513d601f19601f82011682018060405250810190610eb19190611520565b905080610ed05760405162461bcd60e51b81526004016103c69061153b565b600354845460405163a9ae143160e01b81523360048201526024810185905260448101919091524260648201526001600160a01b039091169063a9ae143190608401600060405180830381600087803b158015610f2c57600080fd5b505af1158015610f40573d6000803e3d6000fd5b50504286555050600a54610f549083611337565b600a555050505050565b60035460405163e6d50cd760e01b81523060048201526000916001600160a01b03169063e6d50cd7906024016040805180830381865afa158015610fa6573d6000803e3d6000fd5b505050506040513d601f19601f82011682018060405250810190610fca9190611572565b9150508061101a5760405162461bcd60e51b815260206004820152601a60248201527f4c697374696e673a20496e616374697665206c697374696e672100000000000060448201526064016103c6565b60008281526008602052604090206002015460ff1661107b5760405162461bcd60e51b815260206004820152601d60248201527f4c697374696e673a204f7074696f6e206e6f7420617661696c61626c6500000060448201526064016103c6565b6000828152600960209081526040808320338452909152902060018101548414156110e85760405162461bcd60e51b815260206004820152601960248201527f4c697374696e673a205374616b6520756e6368616e676564210000000000000060448201526064016103c6565b6003546040516370a0823160e01b81523360048201526000916001600160a01b0316906370a0823190602401602060405180830381865afa158015611131573d6000803e3d6000fd5b505050506040513d601f19601f82011682018060405250810190611155919061159c565b9050848110156111a75760405162461bcd60e51b815260206004820152601e60248201527f4c697374696e673a20496e73756666696369656e742062616c616e636521000060448201526064016103c6565b6001820154156111ba576111ba84610cf9565b600182015485116000816111dc5760018401546111d79088611337565b6111ec565b60018401546111ec908890611337565b905081156112455760018401546112039082611343565b60018501556000868152600860205260409020546112219082611343565b600087815260086020526040902055600b5461123d9082611343565b600b55611292565b60018401546112549082611337565b60018501556000868152600860205260409020546112729082611337565b600087815260086020526040902055600b5461128e9082611337565b600b555b42845560028401805460ff19166001179055600354604051634c2a207560e01b815233600482015260248101899052604481018890526001600160a01b0390911690634c2a207590606401600060405180830381600087803b1580156112f757600080fd5b505af115801561130b573d6000803e3d6000fd5b5050505050505050505050565b600061132482846115cb565b9392505050565b600061132482846115ea565b6000611324828461160c565b60006113248284611623565b60008061136e6005546104676064600b5461131890919063ffffffff16565b9050605681111561137d575060565b4260045410801561138e5750603281115b15611397575060325b60006113b360646104678460065461131890919063ffffffff16565b60008681526008602090815260408083208151606081018352815480825260018084015495830186905260029093015460ff1615159382019390935290890154949550936114169261046791906114109060649084908a90611318565b90611318565b8654909150600090611429904290611337565b905061143c620151806104678484611318565b98975050505050505050565b60006020828403121561145a57600080fd5b5035919050565b80356001600160a01b038116811461147857600080fd5b919050565b6000806040838503121561149057600080fd5b823591506114a060208401611461565b90509250929050565b6000602082840312156114bb57600080fd5b61132482611461565b600080604083850312156114d757600080fd5b50508035926020909101359150565b60208082526010908201526f4c697374696e673a20556e617574682160801b604082015260600190565b8051801515811461147857600080fd5b60006020828403121561153257600080fd5b61132482611510565b6020808252601e908201527f4c697374696e673a20556e7375636365737366756c20617474656d7074210000604082015260600190565b6000806040838503121561158557600080fd5b61158e83611510565b91506114a060208401611510565b6000602082840312156115ae57600080fd5b5051919050565b634e487b7160e01b600052601160045260246000fd5b60008160001904831182151516156115e5576115e56115b5565b500290565b60008261160757634e487b7160e01b600052601260045260246000fd5b500490565b60008282101561161e5761161e6115b5565b500390565b60008219821115611636576116366115b5565b50019056fea2646970667358221220160fa64e9085cdfb25fb6ae79e92893873840e7823475d007575e2f47df8032064736f6c634300080a0033",
  "linkReferences": {},
  "deployedLinkReferences": {}
}