{
  "_format": "hh-sol-artifact-1",
  "contractName": "Listing",
  "sourceName": "contracts/v1/Listing.sol",
  "abi": [
    {
      "inputs": [
        {
          "internalType": "address",
          "name": "_validator",
          "type": "address"
        },
        {
          "internalType": "address",
          "name": "_owner",
          "type": "address"
        },
        {
          "internalType": "uint256",
          "name": "_listingId",
          "type": "uint256"
        }
      ],
      "stateMutability": "nonpayable",
      "type": "constructor"
    },
    {
      "inputs": [
        {
          "internalType": "uint256",
          "name": "_optionId",
          "type": "uint256"
        }
      ],
      "name": "claimReward",
      "outputs": [],
      "stateMutability": "nonpayable",
      "type": "function"
    },
    {
      "inputs": [],
      "name": "dailyPayment",
      "outputs": [
        {
          "internalType": "uint256",
          "name": "",
          "type": "uint256"
        }
      ],
      "stateMutability": "view",
      "type": "function"
    },
    {
      "inputs": [
        {
          "internalType": "uint256",
          "name": "_amount",
          "type": "uint256"
        }
      ],
      "name": "extendOwnership",
      "outputs": [],
      "stateMutability": "nonpayable",
      "type": "function"
    },
    {
      "inputs": [],
      "name": "listingId",
      "outputs": [
        {
          "internalType": "uint256",
          "name": "",
          "type": "uint256"
        }
      ],
      "stateMutability": "view",
      "type": "function"
    },
    {
      "inputs": [
        {
          "internalType": "uint256",
          "name": "",
          "type": "uint256"
        }
      ],
      "name": "options",
      "outputs": [
        {
          "internalType": "uint256",
          "name": "_totalStake",
          "type": "uint256"
        },
        {
          "internalType": "uint256",
          "name": "_reward",
          "type": "uint256"
        },
        {
          "internalType": "bool",
          "name": "_isSet",
          "type": "bool"
        }
      ],
      "stateMutability": "view",
      "type": "function"
    },
    {
      "inputs": [],
      "name": "owner",
      "outputs": [
        {
          "internalType": "address",
          "name": "",
          "type": "address"
        }
      ],
      "stateMutability": "view",
      "type": "function"
    },
    {
      "inputs": [],
      "name": "ownership",
      "outputs": [
        {
          "internalType": "uint256",
          "name": "",
          "type": "uint256"
        }
      ],
      "stateMutability": "view",
      "type": "function"
    },
    {
      "inputs": [
        {
          "internalType": "uint256",
          "name": "_amount",
          "type": "uint256"
        },
        {
          "internalType": "uint256",
          "name": "_optionId",
          "type": "uint256"
        }
      ],
      "name": "register",
      "outputs": [],
      "stateMutability": "nonpayable",
      "type": "function"
    },
    {
      "inputs": [
        {
          "internalType": "uint256",
          "name": "_optionId",
          "type": "uint256"
        },
        {
          "internalType": "uint256",
          "name": "_reward",
          "type": "uint256"
        }
      ],
      "name": "setupOptionReward",
      "outputs": [],
      "stateMutability": "nonpayable",
      "type": "function"
    },
    {
      "inputs": [
        {
          "internalType": "uint256",
          "name": "",
          "type": "uint256"
        },
        {
          "internalType": "address",
          "name": "",
          "type": "address"
        }
      ],
      "name": "stakings",
      "outputs": [
        {
          "internalType": "uint256",
          "name": "_start",
          "type": "uint256"
        },
        {
          "internalType": "uint256",
          "name": "_amount",
          "type": "uint256"
        },
        {
          "internalType": "bool",
          "name": "_active",
          "type": "bool"
        }
      ],
      "stateMutability": "view",
      "type": "function"
    },
    {
      "inputs": [],
      "name": "tokenContract",
      "outputs": [
        {
          "internalType": "address",
          "name": "",
          "type": "address"
        }
      ],
      "stateMutability": "view",
      "type": "function"
    },
    {
      "inputs": [],
      "name": "totalStake",
      "outputs": [
        {
          "internalType": "uint256",
          "name": "",
          "type": "uint256"
        }
      ],
      "stateMutability": "view",
      "type": "function"
    },
    {
      "inputs": [
        {
          "internalType": "uint256",
          "name": "_optionId",
          "type": "uint256"
        }
      ],
      "name": "unregister",
      "outputs": [],
      "stateMutability": "nonpayable",
      "type": "function"
    },
    {
      "inputs": [
        {
          "internalType": "uint256",
          "name": "_dailyPayment",
          "type": "uint256"
        }
      ],
      "name": "updateDailyPayment",
      "outputs": [],
      "stateMutability": "nonpayable",
      "type": "function"
    },
    {
      "inputs": [
        {
          "internalType": "address",
          "name": "_newOwner",
          "type": "address"
        }
      ],
      "name": "updateOwner",
      "outputs": [],
      "stateMutability": "nonpayable",
      "type": "function"
    },
    {
      "inputs": [
        {
          "internalType": "address",
          "name": "_validator",
          "type": "address"
        }
      ],
      "name": "updateValidator",
      "outputs": [],
      "stateMutability": "nonpayable",
      "type": "function"
    },
    {
      "inputs": [
        {
          "internalType": "uint256",
          "name": "_value",
          "type": "uint256"
        }
      ],
      "name": "updateValue",
      "outputs": [],
      "stateMutability": "nonpayable",
      "type": "function"
    },
    {
      "inputs": [
        {
          "internalType": "address",
          "name": "_worker",
          "type": "address"
        }
      ],
      "name": "updateWorker",
      "outputs": [],
      "stateMutability": "nonpayable",
      "type": "function"
    },
    {
      "inputs": [
        {
          "internalType": "uint256",
          "name": "_listingId",
          "type": "uint256"
        }
      ],
      "name": "updatelistingId",
      "outputs": [],
      "stateMutability": "nonpayable",
      "type": "function"
    },
    {
      "inputs": [],
      "name": "validator",
      "outputs": [
        {
          "internalType": "address",
          "name": "",
          "type": "address"
        }
      ],
      "stateMutability": "view",
      "type": "function"
    },
    {
      "inputs": [],
      "name": "value",
      "outputs": [
        {
          "internalType": "uint256",
          "name": "",
          "type": "uint256"
        }
      ],
      "stateMutability": "view",
      "type": "function"
    },
    {
      "inputs": [
        {
          "internalType": "uint256",
          "name": "_amount",
          "type": "uint256"
        }
      ],
      "name": "withdraw",
      "outputs": [],
      "stateMutability": "nonpayable",
      "type": "function"
    },
    {
      "inputs": [
        {
          "internalType": "address",
          "name": "",
          "type": "address"
        }
      ],
      "name": "workers",
      "outputs": [
        {
          "internalType": "bool",
          "name": "",
          "type": "bool"
        }
      ],
      "stateMutability": "view",
      "type": "function"
    }
  ],
  "bytecode": "0x60a06040523480156200001157600080fd5b5060405162001d9938038062001d99833981016040819052620000349162000091565b600080546001600160a01b039384166001600160a01b031991821617909155600280549490931693169290921790556001554260035533608052620000d2565b80516001600160a01b03811681146200008c57600080fd5b919050565b600080600060608486031215620000a757600080fd5b620000b28462000074565b9250620000c26020850162000074565b9150604084015190509250925092565b608051611c1f6200017a600039600081816102b4015281816103ea015281816105da015281816106a90152818161075d01528181610887015281816109330152818161098901528181610a4701528181610b9001528181610cca01528181610d6301528181610f1301528181611038015281816111690152818161124b01528181611350015281816114080152818161148e0152818161163601526118230152611c1f6000f3fe608060405234801561001057600080fd5b506004361061014d5760003560e01c8063573c0bd3116100c35780638da5cb5b1161007c5780638da5cb5b146103345780639405dfdd14610347578063a02b161e14610350578063a5edfb5314610363578063ae169a5014610376578063d66d6c101461038957600080fd5b8063573c0bd3146102d65780635d03147a146102e9578063635b2770146102f257806380e4cc9d14610305578063880cdc31146103185780638b0e9f3f1461032b57600080fd5b80634048a257116101155780634048a2571461021b578063409e22051461024e5780634338fbaa14610280578063506f50bc1461028957806354a499021461029c57806355a373d6146102af57600080fd5b8063103a62ba146101525780632a421332146101675780632e1a7d4d146101c65780633a5381b5146101d95780633fa4f24514610204575b600080fd5b6101656101603660046119f6565b61039c565b005b6101a4610175366004611a2b565b600860209081526000928352604080842090915290825290208054600182015460029092015490919060ff1683565b6040805193845260208401929092521515908201526060015b60405180910390f35b6101656101d43660046119f6565b610452565b6002546101ec906001600160a01b031681565b6040516001600160a01b0390911681526020016101bd565b61020d60045481565b6040519081526020016101bd565b61023e610229366004611a57565b60066020526000908152604090205460ff1681565b60405190151581526020016101bd565b6101a461025c3660046119f6565b60076020526000908152604090208054600182015460029092015490919060ff1683565b61020d60055481565b6101656102973660046119f6565b610712565b6101656102aa366004611a72565b6107c9565b6101ec7f000000000000000000000000000000000000000000000000000000000000000081565b6101656102e43660046119f6565b6108ef565b61020d60035481565b610165610300366004611a57565b61096a565b610165610313366004611a57565b610ac8565b610165610326366004611a57565b610bc1565b61020d60095481565b6000546101ec906001600160a01b031681565b61020d60015481565b61016561035e3660046119f6565b610d4b565b6101656103713660046119f6565b610f7c565b6101656103843660046119f6565b6111cb565b610165610397366004611a72565b611476565b6002546001600160a01b031633146103cf5760405162461bcd60e51b81526004016103c690611a94565b60405180910390fd5b600581905560405163de6d745f60e01b8152600481018290527f00000000000000000000000000000000000000000000000000000000000000006001600160a01b03169063de6d745f906024015b600060405180830381600087803b15801561043757600080fd5b505af115801561044b573d6000803e3d6000fd5b5050505050565b6000546001600160a01b0316331461047c5760405162461bcd60e51b81526004016103c690611a94565b4260035410156104ce5760405162461bcd60e51b815260206004820152601b60248201527f4c697374696e673a204f776e657273686970206578706972656421000000000060448201526064016103c6565b6005548110156105205760405162461bcd60e51b815260206004820152601d60248201527f4c697374696e673a20496e73756666696369656e7420616d6f756e742100000060448201526064016103c6565b60055460009061053d906105378462015180611888565b9061189b565b90506000610556826003546118a790919063ffffffff16565b905061056542620151806118b3565b8110156105b45760405162461bcd60e51b815260206004820152601860248201527f4c697374696e673a20496e76616c696420616d6f756e7421000000000000000060448201526064016103c6565b60405163e9dc65bb60e01b815233600482015260248101849052600060448201819052907f00000000000000000000000000000000000000000000000000000000000000006001600160a01b03169063e9dc65bb906064016020604051808303816000875af115801561062b573d6000803e3d6000fd5b505050506040513d601f19601f8201168201806040525081019061064f9190611ace565b90508061066e5760405162461bcd60e51b81526004016103c690611ae9565b600054600354604051637602f0f160e01b81526001600160a01b039283166004820152602481018790526044810191909152606481018490527f000000000000000000000000000000000000000000000000000000000000000090911690637602f0f190608401600060405180830381600087803b1580156106ef57600080fd5b505af1158015610703573d6000803e3d6000fd5b50505060039290925550505050565b6002546001600160a01b0316331461073c5760405162461bcd60e51b81526004016103c690611a94565b600154604051637316c87f60e01b81526004810191909152602481018290527f00000000000000000000000000000000000000000000000000000000000000006001600160a01b031690637316c87f90604401600060405180830381600087803b1580156107a957600080fd5b505af11580156107bd573d6000803e3d6000fd5b50505060019190915550565b6002546001600160a01b031633146107f35760405162461bcd60e51b81526004016103c690611a94565b60648111156108445760405162461bcd60e51b815260206004820152601d60248201527f4c697374696e673a20496e76616c6964207265776172642076616c756500000060448201526064016103c6565b6000828152600760205260409081902060018082018490556002909101805460ff191690911790555163b073cdc960e01b815260048101839052602481018290527f00000000000000000000000000000000000000000000000000000000000000006001600160a01b03169063b073cdc990604401600060405180830381600087803b1580156108d357600080fd5b505af11580156108e7573d6000803e3d6000fd5b505050505050565b6002546001600160a01b031633146109195760405162461bcd60e51b81526004016103c690611a94565b60048181556040516372d7b24d60e11b81529081018290527f00000000000000000000000000000000000000000000000000000000000000006001600160a01b03169063e5af649a9060240161041d565b6002546001600160a01b03163314806109ab5750336001600160a01b037f000000000000000000000000000000000000000000000000000000000000000016145b6109c75760405162461bcd60e51b81526004016103c690611a94565b6001600160a01b038116610a1d5760405162461bcd60e51b815260206004820152601b60248201527f4c697374696e673a20496e76616c6964205f76616c696461746f72000000000060448201526064016103c6565b600254604051631d02a45960e01b81526001600160a01b03918216600482015282821660248201527f000000000000000000000000000000000000000000000000000000000000000090911690631d02a45990604401600060405180830381600087803b158015610a8d57600080fd5b505af1158015610aa1573d6000803e3d6000fd5b5050600280546001600160a01b0319166001600160a01b0394909416939093179092555050565b6000546001600160a01b03163314610af25760405162461bcd60e51b81526004016103c690611a94565b426003541015610b445760405162461bcd60e51b815260206004820152601a60248201527f4c697374696e673a204f776e657273686970206578706972656400000000000060448201526064016103c6565b6001600160a01b0381811660008181526006602052604090819020805460ff8082161560ff19909216821790925591516333be8f3d60e21b8152600481019390935216151560248201527f00000000000000000000000000000000000000000000000000000000000000009091169063cefa3cf49060440161041d565b6002546001600160a01b03163314610beb5760405162461bcd60e51b81526004016103c690611a94565b4262015180600354610bfd9190611b36565b10610c4a5760405162461bcd60e51b815260206004820152601760248201527f4f776e6572206861736e277420666f726665697465642100000000000000000060448201526064016103c6565b6001600160a01b038116610ca05760405162461bcd60e51b815260206004820152601a60248201527f4c697374696e673a20496e76616c6964205f6e65774f776e657200000000000060448201526064016103c6565b60005460405163c2a272ed60e01b81526001600160a01b03918216600482015282821660248201527f00000000000000000000000000000000000000000000000000000000000000009091169063c2a272ed90604401600060405180830381600087803b158015610d1057600080fd5b505af1158015610d24573d6000803e3d6000fd5b5050600080546001600160a01b0319166001600160a01b0394909416939093179092555050565b60405163e6d50cd760e01b81523060048201526000907f00000000000000000000000000000000000000000000000000000000000000006001600160a01b03169063e6d50cd7906024016040805180830381865afa158015610db1573d6000803e3d6000fd5b505050506040513d601f19601f82011682018060405250810190610dd59190611b4d565b91505080610e255760405162461bcd60e51b815260206004820152601a60248201527f4c697374696e673a20496e616374697665206c697374696e672100000000000060448201526064016103c6565b60008281526008602090815260408083203384529091529020600281015460ff16610e8d5760405162461bcd60e51b81526020600482015260186024820152774c697374696e673a2052656769737465722066697273742160401b60448201526064016103c6565b600181015415610ea057610ea0836111cb565b6001810154600084815260076020526040902054610ebd916118a7565b6000848152600760205260409020556001810154600954610edd916118a7565b60095560006001820181905560028201805460ff1916905581556040516387d4535160e01b8152336004820152602481018490527f00000000000000000000000000000000000000000000000000000000000000006001600160a01b0316906387d4535190604401600060405180830381600087803b158015610f5f57600080fd5b505af1158015610f73573d6000803e3d6000fd5b50505050505050565b6000546001600160a01b0316331480610fa457504262015180600354610fa29190611b36565b105b610fc05760405162461bcd60e51b81526004016103c690611a94565b6005548110156110125760405162461bcd60e51b815260206004820152601d60248201527f4c697374696e673a20496e73756666696369656e7420616d6f756e742100000060448201526064016103c6565b60405163e9dc65bb60e01b815233600482015260248101829052600160448201526000907f00000000000000000000000000000000000000000000000000000000000000006001600160a01b03169063e9dc65bb906064016020604051808303816000875af1158015611089573d6000803e3d6000fd5b505050506040513d601f19601f820116820180604052508101906110ad9190611ace565b9050806110cc5760405162461bcd60e51b81526004016103c690611ae9565b6003546000546001600160a01b0316426110e96201518084611b36565b101561110557600080546001600160a01b031916331790554291505b6005546111249061111d906105378762015180611888565b83906118b3565b6003819055600054604051631b33557760e01b81526001600160a01b0384811660048301529182166024820152604481018590526064810192909252608482018690527f00000000000000000000000000000000000000000000000000000000000000001690631b3355779060a401600060405180830381600087803b1580156111ad57600080fd5b505af11580156111c1573d6000803e3d6000fd5b5050505050505050565b60008181526008602090815260408083203384529091529020600281015460ff166112335760405162461bcd60e51b81526020600482015260186024820152774c697374696e673a2052656769737465722066697273742160401b60448201526064016103c6565b6040516370a0823160e01b81523360048201526000907f00000000000000000000000000000000000000000000000000000000000000006001600160a01b0316906370a0823190602401602060405180830381865afa15801561129a573d6000803e3d6000fd5b505050506040513d601f19601f820116820180604052508101906112be9190611b77565b905081600101548110156113145760405162461bcd60e51b815260206004820152601e60248201527f4c697374696e673a20496e73756666696369656e742062616c616e636521000060448201526064016103c6565b600061132084846118bf565b60405163e9dc65bb60e01b8152336004820152602481018290526000604482018190529192506001600160a01b037f0000000000000000000000000000000000000000000000000000000000000000169063e9dc65bb906064016020604051808303816000875af1158015611399573d6000803e3d6000fd5b505050506040513d601f19601f820116820180604052508101906113bd9190611ace565b9050806113dc5760405162461bcd60e51b81526004016103c690611ae9565b835460405163a9ae143160e01b81523360048201526024810184905260448101919091524260648201527f00000000000000000000000000000000000000000000000000000000000000006001600160a01b03169063a9ae143190608401600060405180830381600087803b15801561145457600080fd5b505af1158015611468573d6000803e3d6000fd5b505042909555505050505050565b60405163e6d50cd760e01b81523060048201526000907f00000000000000000000000000000000000000000000000000000000000000006001600160a01b03169063e6d50cd7906024016040805180830381865afa1580156114dc573d6000803e3d6000fd5b505050506040513d601f19601f820116820180604052508101906115009190611b4d565b915050806115505760405162461bcd60e51b815260206004820152601a60248201527f4c697374696e673a20496e616374697665206c697374696e672100000000000060448201526064016103c6565b60008281526007602052604090206002015460ff166115b15760405162461bcd60e51b815260206004820152601d60248201527f4c697374696e673a204f7074696f6e206e6f7420617661696c61626c6500000060448201526064016103c6565b60008281526008602090815260408083203384529091529020600181015484141561161e5760405162461bcd60e51b815260206004820152601960248201527f4c697374696e673a205374616b6520756e6368616e676564210000000000000060448201526064016103c6565b6040516370a0823160e01b81523360048201526000907f00000000000000000000000000000000000000000000000000000000000000006001600160a01b0316906370a0823190602401602060405180830381865afa158015611685573d6000803e3d6000fd5b505050506040513d601f19601f820116820180604052508101906116a99190611b77565b9050848110156116fb5760405162461bcd60e51b815260206004820152601e60248201527f4c697374696e673a20496e73756666696369656e742062616c616e636521000060448201526064016103c6565b60018201541561170e5761170e846111cb565b6001820154851160008161173057600184015461172b90886118a7565b611740565b60018401546117409088906118a7565b9050811561179957600184015461175790826118b3565b600185015560008681526007602052604090205461177590826118b3565b60008781526007602052604090205560095461179190826118b3565b6009556117e6565b60018401546117a890826118a7565b60018501556000868152600760205260409020546117c690826118a7565b6000878152600760205260409020556009546117e290826118a7565b6009555b42845560028401805460ff19166001179055604051634c2a207560e01b815233600482015260248101889052604481018790526001600160a01b037f00000000000000000000000000000000000000000000000000000000000000001690634c2a207590606401600060405180830381600087803b15801561186757600080fd5b505af115801561187b573d6000803e3d6000fd5b5050505050505050505050565b60006118948284611b90565b9392505050565b60006118948284611baf565b60006118948284611b36565b60006118948284611bd1565b600454600954600091670de0b6b3a76400009183916118e2916105379085611888565b90506118f46064610537846056611888565b81111561190e5761190b6064610537846056611888565b90505b4260035410801561192d575061192a6064610537846032611888565b81115b15611945576119426064610537846032611888565b90505b6000611960836105378460055461188890919063ffffffff16565b60008781526007602090815260408083208151606081018352815480825260018084015495830186905260029093015460ff16151593820193909352908a0154949550936119c39261053791906119bd9060649084908a90611888565b90611888565b87549091506000906119d69042906118a7565b90506119e9620151806105378484611888565b9998505050505050505050565b600060208284031215611a0857600080fd5b5035919050565b80356001600160a01b0381168114611a2657600080fd5b919050565b60008060408385031215611a3e57600080fd5b82359150611a4e60208401611a0f565b90509250929050565b600060208284031215611a6957600080fd5b61189482611a0f565b60008060408385031215611a8557600080fd5b50508035926020909101359150565b60208082526010908201526f4c697374696e673a20556e617574682160801b604082015260600190565b80518015158114611a2657600080fd5b600060208284031215611ae057600080fd5b61189482611abe565b6020808252601e908201527f4c697374696e673a20556e7375636365737366756c20617474656d7074210000604082015260600190565b634e487b7160e01b600052601160045260246000fd5b600082821015611b4857611b48611b20565b500390565b60008060408385031215611b6057600080fd5b611b6983611abe565b9150611a4e60208401611abe565b600060208284031215611b8957600080fd5b5051919050565b6000816000190483118215151615611baa57611baa611b20565b500290565b600082611bcc57634e487b7160e01b600052601260045260246000fd5b500490565b60008219821115611be457611be4611b20565b50019056fea2646970667358221220ed688bb3061ee0d8cb91f4da1a72d01f1970ced1f2564e2936614cd59a4e608764736f6c634300080b0033",
  "linkReferences": {},
  "deployedLinkReferences": {}
}