{
  "_format": "hh-sol-artifact-1",
  "contractName": "Listing",
  "sourceName": "contracts/v1/Listing.sol",
  "abi": [
    {
      "inputs": [
        {
          "internalType": "address",
          "name": "_validator",
          "type": "address"
        },
        {
          "internalType": "address",
          "name": "_owner",
          "type": "address"
        },
        {
          "internalType": "uint256",
          "name": "_listingId",
          "type": "uint256"
        }
      ],
      "stateMutability": "nonpayable",
      "type": "constructor"
    },
    {
      "inputs": [
        {
          "internalType": "uint256",
          "name": "_optionId",
          "type": "uint256"
        }
      ],
      "name": "claimReward",
      "outputs": [],
      "stateMutability": "nonpayable",
      "type": "function"
    },
    {
      "inputs": [],
      "name": "dailyPayment",
      "outputs": [
        {
          "internalType": "uint256",
          "name": "",
          "type": "uint256"
        }
      ],
      "stateMutability": "view",
      "type": "function"
    },
    {
      "inputs": [
        {
          "internalType": "uint256",
          "name": "_amount",
          "type": "uint256"
        }
      ],
      "name": "extendOwnership",
      "outputs": [],
      "stateMutability": "nonpayable",
      "type": "function"
    },
    {
      "inputs": [],
      "name": "listingId",
      "outputs": [
        {
          "internalType": "uint256",
          "name": "",
          "type": "uint256"
        }
      ],
      "stateMutability": "view",
      "type": "function"
    },
    {
      "inputs": [
        {
          "internalType": "uint256",
          "name": "",
          "type": "uint256"
        }
      ],
      "name": "options",
      "outputs": [
        {
          "internalType": "uint256",
          "name": "_totalStake",
          "type": "uint256"
        },
        {
          "internalType": "uint256",
          "name": "_reward",
          "type": "uint256"
        },
        {
          "internalType": "bool",
          "name": "_isSet",
          "type": "bool"
        }
      ],
      "stateMutability": "view",
      "type": "function"
    },
    {
      "inputs": [],
      "name": "owner",
      "outputs": [
        {
          "internalType": "address",
          "name": "",
          "type": "address"
        }
      ],
      "stateMutability": "view",
      "type": "function"
    },
    {
      "inputs": [],
      "name": "ownership",
      "outputs": [
        {
          "internalType": "uint256",
          "name": "",
          "type": "uint256"
        }
      ],
      "stateMutability": "view",
      "type": "function"
    },
    {
      "inputs": [
        {
          "internalType": "uint256",
          "name": "_amount",
          "type": "uint256"
        },
        {
          "internalType": "uint256",
          "name": "_optionId",
          "type": "uint256"
        }
      ],
      "name": "register",
      "outputs": [],
      "stateMutability": "nonpayable",
      "type": "function"
    },
    {
      "inputs": [
        {
          "internalType": "uint256",
          "name": "_optionId",
          "type": "uint256"
        },
        {
          "internalType": "uint256",
          "name": "_reward",
          "type": "uint256"
        }
      ],
      "name": "setupOptionReward",
      "outputs": [],
      "stateMutability": "nonpayable",
      "type": "function"
    },
    {
      "inputs": [
        {
          "internalType": "uint256",
          "name": "",
          "type": "uint256"
        },
        {
          "internalType": "address",
          "name": "",
          "type": "address"
        }
      ],
      "name": "stakings",
      "outputs": [
        {
          "internalType": "uint256",
          "name": "_start",
          "type": "uint256"
        },
        {
          "internalType": "uint256",
          "name": "_amount",
          "type": "uint256"
        },
        {
          "internalType": "bool",
          "name": "_active",
          "type": "bool"
        }
      ],
      "stateMutability": "view",
      "type": "function"
    },
    {
      "inputs": [],
      "name": "tokenContract",
      "outputs": [
        {
          "internalType": "address",
          "name": "",
          "type": "address"
        }
      ],
      "stateMutability": "view",
      "type": "function"
    },
    {
      "inputs": [],
      "name": "totalStake",
      "outputs": [
        {
          "internalType": "uint256",
          "name": "",
          "type": "uint256"
        }
      ],
      "stateMutability": "view",
      "type": "function"
    },
    {
      "inputs": [
        {
          "internalType": "uint256",
          "name": "_optionId",
          "type": "uint256"
        }
      ],
      "name": "unregister",
      "outputs": [],
      "stateMutability": "nonpayable",
      "type": "function"
    },
    {
      "inputs": [
        {
          "internalType": "uint256",
          "name": "_dailyPayment",
          "type": "uint256"
        }
      ],
      "name": "updateDailyPayment",
      "outputs": [],
      "stateMutability": "nonpayable",
      "type": "function"
    },
    {
      "inputs": [
        {
          "internalType": "address",
          "name": "_newOwner",
          "type": "address"
        }
      ],
      "name": "updateOwner",
      "outputs": [],
      "stateMutability": "nonpayable",
      "type": "function"
    },
    {
      "inputs": [
        {
          "internalType": "address",
          "name": "_validator",
          "type": "address"
        }
      ],
      "name": "updateValidator",
      "outputs": [],
      "stateMutability": "nonpayable",
      "type": "function"
    },
    {
      "inputs": [
        {
          "internalType": "uint256",
          "name": "_value",
          "type": "uint256"
        }
      ],
      "name": "updateValue",
      "outputs": [],
      "stateMutability": "nonpayable",
      "type": "function"
    },
    {
      "inputs": [
        {
          "internalType": "address",
          "name": "_worker",
          "type": "address"
        }
      ],
      "name": "updateWorker",
      "outputs": [],
      "stateMutability": "nonpayable",
      "type": "function"
    },
    {
      "inputs": [
        {
          "internalType": "uint256",
          "name": "_listingId",
          "type": "uint256"
        }
      ],
      "name": "updatelistingId",
      "outputs": [],
      "stateMutability": "nonpayable",
      "type": "function"
    },
    {
      "inputs": [],
      "name": "validator",
      "outputs": [
        {
          "internalType": "address",
          "name": "",
          "type": "address"
        }
      ],
      "stateMutability": "view",
      "type": "function"
    },
    {
      "inputs": [],
      "name": "value",
      "outputs": [
        {
          "internalType": "uint256",
          "name": "",
          "type": "uint256"
        }
      ],
      "stateMutability": "view",
      "type": "function"
    },
    {
      "inputs": [
        {
          "internalType": "uint256",
          "name": "_amount",
          "type": "uint256"
        }
      ],
      "name": "withdraw",
      "outputs": [],
      "stateMutability": "nonpayable",
      "type": "function"
    },
    {
      "inputs": [
        {
          "internalType": "address",
          "name": "",
          "type": "address"
        }
      ],
      "name": "workers",
      "outputs": [
        {
          "internalType": "bool",
          "name": "",
          "type": "bool"
        }
      ],
      "stateMutability": "view",
      "type": "function"
    }
  ],
  "bytecode": "0x608060405234801561001057600080fd5b50604051620018223803806200182283398101604081905261003191610095565b600080546001600160a01b039384166001600160a01b0319918216179091556002805494909316938116939093179091556001554260045560038054909116331790556100d1565b80516001600160a01b038116811461009057600080fd5b919050565b6000806000606084860312156100aa57600080fd5b6100b384610079565b92506100c160208501610079565b9150604084015190509250925092565b61174180620000e16000396000f3fe608060405234801561001057600080fd5b506004361061014d5760003560e01c8063573c0bd3116100c35780638da5cb5b1161007c5780638da5cb5b146103205780639405dfdd14610333578063a02b161e1461033c578063a5edfb531461034f578063ae169a5014610362578063d66d6c101461037557600080fd5b8063573c0bd3146102c25780635d03147a146102d5578063635b2770146102de57806380e4cc9d146102f1578063880cdc31146103045780638b0e9f3f1461031757600080fd5b80634048a257116101155780634048a2571461021b578063409e22051461024e5780634338fbaa14610280578063506f50bc1461028957806354a499021461029c57806355a373d6146102af57600080fd5b8063103a62ba146101525780632a421332146101675780632e1a7d4d146101c65780633a5381b5146101d95780633fa4f24514610204575b600080fd5b610165610160366004611518565b610388565b005b6101a461017536600461154d565b600960209081526000928352604080842090915290825290208054600182015460029092015490919060ff1683565b6040805193845260208401929092521515908201526060015b60405180910390f35b6101656101d4366004611518565b610422565b6002546101ec906001600160a01b031681565b6040516001600160a01b0390911681526020016101bd565b61020d60055481565b6040519081526020016101bd565b61023e610229366004611579565b60076020526000908152604090205460ff1681565b60405190151581526020016101bd565b6101a461025c366004611518565b60086020526000908152604090208054600182015460029092015490919060ff1683565b61020d60065481565b610165610297366004611518565b6106a5565b6101656102aa366004611594565b6106d4565b6003546101ec906001600160a01b031681565b6101656102d0366004611518565b610777565b61020d60045481565b6101656102ec366004611579565b6107d7565b6101656102ff366004611579565b610838565b610165610312366004611579565b610913565b61020d600a5481565b6000546101ec906001600160a01b031681565b61020d60015481565b61016561034a366004611518565b6109a9565b61016561035d366004611518565b610ba0565b610165610370366004611518565b610d9b565b610165610383366004611594565b610ff0565b6002546001600160a01b031633146103bb5760405162461bcd60e51b81526004016103b2906115b6565b60405180910390fd5b600681905560035460405163de6d745f60e01b8152600481018390526001600160a01b039091169063de6d745f906024015b600060405180830381600087803b15801561040757600080fd5b505af115801561041b573d6000803e3d6000fd5b5050505050565b6000546001600160a01b0316331461044c5760405162461bcd60e51b81526004016103b2906115b6565b42600454101561049e5760405162461bcd60e51b815260206004820152601b60248201527f4c697374696e673a204f776e657273686970206578706972656421000000000060448201526064016103b2565b6006548110156104f05760405162461bcd60e51b815260206004820152601d60248201527f4c697374696e673a20496e73756666696369656e7420616d6f756e742100000060448201526064016103b2565b60065460009061050d9061050784620151806113aa565b906113bd565b90506000610526826004546113c990919063ffffffff16565b905061053542620151806113d5565b8110156105845760405162461bcd60e51b815260206004820152601860248201527f4c697374696e673a20496e76616c696420616d6f756e7421000000000000000060448201526064016103b2565b60035460405163e9dc65bb60e01b815233600482015260248101859052600060448201819052916001600160a01b03169063e9dc65bb906064016020604051808303816000875af11580156105dd573d6000803e3d6000fd5b505050506040513d601f19601f8201168201806040525081019061060191906115f0565b9050806106205760405162461bcd60e51b81526004016103b29061160b565b60035460005460048054604051637602f0f160e01b81526001600160a01b039384169281019290925260248201889052604482015260648101859052911690637602f0f190608401600060405180830381600087803b15801561068257600080fd5b505af1158015610696573d6000803e3d6000fd5b50505060049290925550505050565b6002546001600160a01b031633146106cf5760405162461bcd60e51b81526004016103b2906115b6565b600155565b6002546001600160a01b031633146106fe5760405162461bcd60e51b81526004016103b2906115b6565b606481111561074f5760405162461bcd60e51b815260206004820152601d60248201527f4c697374696e673a20496e76616c6964207265776172642076616c756500000060448201526064016103b2565b600091825260086020526040909120600180820192909255600201805460ff19169091179055565b6002546001600160a01b031633146107a15760405162461bcd60e51b81526004016103b2906115b6565b60058190556003546040516372d7b24d60e11b8152600481018390526001600160a01b039091169063e5af649a906024016103ed565b6002546001600160a01b03163314806107fa57506003546001600160a01b031633145b6108165760405162461bcd60e51b81526004016103b2906115b6565b600280546001600160a01b0319166001600160a01b0392909216919091179055565b6000546001600160a01b031633146108625760405162461bcd60e51b81526004016103b2906115b6565b4260045410156108b45760405162461bcd60e51b815260206004820152601a60248201527f4c697374696e673a204f776e657273686970206578706972656400000000000060448201526064016103b2565b6001600160a01b0381811660008181526007602052604090819020805460ff8082161560ff19909216821790925560035492516333be8f3d60e21b8152600481019490945216151560248301529091169063cefa3cf4906044016103ed565b6002546001600160a01b0316331461093d5760405162461bcd60e51b81526004016103b2906115b6565b42600454106109875760405162461bcd60e51b81526020600482015260166024820152754f776e657273686970206e6f7420657870697265642160501b60448201526064016103b2565b600080546001600160a01b0319166001600160a01b0392909216919091179055565b60035460405163e6d50cd760e01b81523060048201526000916001600160a01b03169063e6d50cd7906024016040805180830381865afa1580156109f1573d6000803e3d6000fd5b505050506040513d601f19601f82011682018060405250810190610a159190611642565b91505080610a655760405162461bcd60e51b815260206004820152601a60248201527f4c697374696e673a20496e616374697665206c697374696e672100000000000060448201526064016103b2565b60008281526009602090815260408083203384529091529020600281015460ff16610acd5760405162461bcd60e51b81526020600482015260186024820152774c697374696e673a2052656769737465722066697273742160401b60448201526064016103b2565b600181015415610ae057610ae083610d9b565b6001810154600084815260086020526040902054610afd916113c9565b6000848152600860205260409020556001810154600a54610b1d916113c9565b600a5560006001820181905560028201805460ff1916905581556003546040516387d4535160e01b8152336004820152602481018590526001600160a01b03909116906387d4535190604401600060405180830381600087803b158015610b8357600080fd5b505af1158015610b97573d6000803e3d6000fd5b50505050505050565b6000546001600160a01b0316331480610bba575042600454105b610bd65760405162461bcd60e51b81526004016103b2906115b6565b600654811015610c285760405162461bcd60e51b815260206004820152601d60248201527f4c697374696e673a20496e73756666696369656e7420616d6f756e742100000060448201526064016103b2565b60035460405163e9dc65bb60e01b815233600482015260248101839052600160448201526000916001600160a01b03169063e9dc65bb906064016020604051808303816000875af1158015610c81573d6000803e3d6000fd5b505050506040513d601f19601f82011682018060405250810190610ca591906115f0565b905080610cc45760405162461bcd60e51b81526004016103b29061160b565b6004546000546001600160a01b031642821015610cf157600080546001600160a01b031916331790554291505b600654610d1090610d099061050787620151806113aa565b83906113d5565b6004818155600354600054604051631b33557760e01b81526001600160a01b03868116948201949094529083166024820152604481018690526064810193909352608483018790521690631b3355779060a401600060405180830381600087803b158015610d7d57600080fd5b505af1158015610d91573d6000803e3d6000fd5b5050505050505050565b60008181526009602090815260408083203384529091529020600281015460ff16610e035760405162461bcd60e51b81526020600482015260186024820152774c697374696e673a2052656769737465722066697273742160401b60448201526064016103b2565b6003546040516370a0823160e01b81523360048201526000916001600160a01b0316906370a0823190602401602060405180830381865afa158015610e4c573d6000803e3d6000fd5b505050506040513d601f19601f82011682018060405250810190610e70919061166c565b90508160010154811015610ec65760405162461bcd60e51b815260206004820152601e60248201527f4c697374696e673a20496e73756666696369656e742062616c616e636521000060448201526064016103b2565b6000610ed284846113e1565b60035460405163e9dc65bb60e01b8152336004820152602481018390526000604482018190529293506001600160a01b039091169063e9dc65bb906064016020604051808303816000875af1158015610f2f573d6000803e3d6000fd5b505050506040513d601f19601f82011682018060405250810190610f5391906115f0565b905080610f725760405162461bcd60e51b81526004016103b29061160b565b600354845460405163a9ae143160e01b81523360048201526024810185905260448101919091524260648201526001600160a01b039091169063a9ae143190608401600060405180830381600087803b158015610fce57600080fd5b505af1158015610fe2573d6000803e3d6000fd5b505042909555505050505050565b60035460405163e6d50cd760e01b81523060048201526000916001600160a01b03169063e6d50cd7906024016040805180830381865afa158015611038573d6000803e3d6000fd5b505050506040513d601f19601f8201168201806040525081019061105c9190611642565b915050806110ac5760405162461bcd60e51b815260206004820152601a60248201527f4c697374696e673a20496e616374697665206c697374696e672100000000000060448201526064016103b2565b60008281526008602052604090206002015460ff1661110d5760405162461bcd60e51b815260206004820152601d60248201527f4c697374696e673a204f7074696f6e206e6f7420617661696c61626c6500000060448201526064016103b2565b60008281526009602090815260408083203384529091529020600181015484141561117a5760405162461bcd60e51b815260206004820152601960248201527f4c697374696e673a205374616b6520756e6368616e676564210000000000000060448201526064016103b2565b6003546040516370a0823160e01b81523360048201526000916001600160a01b0316906370a0823190602401602060405180830381865afa1580156111c3573d6000803e3d6000fd5b505050506040513d601f19601f820116820180604052508101906111e7919061166c565b9050848110156112395760405162461bcd60e51b815260206004820152601e60248201527f4c697374696e673a20496e73756666696369656e742062616c616e636521000060448201526064016103b2565b60018201541561124c5761124c84610d9b565b6001820154851160008161126e57600184015461126990886113c9565b61127e565b600184015461127e9088906113c9565b905081156112d757600184015461129590826113d5565b60018501556000868152600860205260409020546112b390826113d5565b600087815260086020526040902055600a546112cf90826113d5565b600a55611324565b60018401546112e690826113c9565b600185015560008681526008602052604090205461130490826113c9565b600087815260086020526040902055600a5461132090826113c9565b600a555b42845560028401805460ff19166001179055600354604051634c2a207560e01b815233600482015260248101899052604481018890526001600160a01b0390911690634c2a207590606401600060405180830381600087803b15801561138957600080fd5b505af115801561139d573d6000803e3d6000fd5b5050505050505050505050565b60006113b6828461169b565b9392505050565b60006113b682846116ba565b60006113b682846116dc565b60006113b682846116f3565b600554600a54600091670de0b6b3a76400009183916114049161050790856113aa565b905061141660646105078460566113aa565b8111156114305761142d60646105078460566113aa565b90505b4260045410801561144f575061144c60646105078460326113aa565b81115b156114675761146460646105078460326113aa565b90505b600061148283610507846006546113aa90919063ffffffff16565b60008781526008602090815260408083208151606081018352815480825260018084015495830186905260029093015460ff16151593820193909352908a0154949550936114e59261050791906114df9060649084908a906113aa565b906113aa565b87549091506000906114f89042906113c9565b905061150b6201518061050784846113aa565b9998505050505050505050565b60006020828403121561152a57600080fd5b5035919050565b80356001600160a01b038116811461154857600080fd5b919050565b6000806040838503121561156057600080fd5b8235915061157060208401611531565b90509250929050565b60006020828403121561158b57600080fd5b6113b682611531565b600080604083850312156115a757600080fd5b50508035926020909101359150565b60208082526010908201526f4c697374696e673a20556e617574682160801b604082015260600190565b8051801515811461154857600080fd5b60006020828403121561160257600080fd5b6113b6826115e0565b6020808252601e908201527f4c697374696e673a20556e7375636365737366756c20617474656d7074210000604082015260600190565b6000806040838503121561165557600080fd5b61165e836115e0565b9150611570602084016115e0565b60006020828403121561167e57600080fd5b5051919050565b634e487b7160e01b600052601160045260246000fd5b60008160001904831182151516156116b5576116b5611685565b500290565b6000826116d757634e487b7160e01b600052601260045260246000fd5b500490565b6000828210156116ee576116ee611685565b500390565b6000821982111561170657611706611685565b50019056fea2646970667358221220fdd74399bb1880f56448a82a46aa66411f43c25becd70129ec3e5f28d642562564736f6c634300080b0033",
  "linkReferences": {},
  "deployedLinkReferences": {}
}