{
  "_format": "hh-sol-artifact-1",
  "contractName": "ListingV2",
  "sourceName": "contracts/v2/ListingV2.sol",
  "abi": [
    {
      "inputs": [
        {
          "internalType": "address",
          "name": "_validator",
          "type": "address"
        },
        {
          "internalType": "address",
          "name": "_owner",
          "type": "address"
        },
        {
          "internalType": "uint256",
          "name": "_listingId",
          "type": "uint256"
        }
      ],
      "stateMutability": "nonpayable",
      "type": "constructor"
    },
    {
      "anonymous": false,
      "inputs": [
        {
          "indexed": false,
          "internalType": "address",
          "name": "_stakeholder",
          "type": "address"
        },
        {
          "indexed": false,
          "internalType": "uint256",
          "name": "_reward",
          "type": "uint256"
        },
        {
          "indexed": false,
          "internalType": "uint256",
          "name": "_from",
          "type": "uint256"
        },
        {
          "indexed": false,
          "internalType": "uint256",
          "name": "_to",
          "type": "uint256"
        }
      ],
      "name": "Claim",
      "type": "event"
    },
    {
      "anonymous": false,
      "inputs": [
        {
          "indexed": false,
          "internalType": "address",
          "name": "_prevOwner",
          "type": "address"
        },
        {
          "indexed": false,
          "internalType": "address",
          "name": "_newOwner",
          "type": "address"
        },
        {
          "indexed": false,
          "internalType": "uint256",
          "name": "_start",
          "type": "uint256"
        },
        {
          "indexed": false,
          "internalType": "uint256",
          "name": "_end",
          "type": "uint256"
        },
        {
          "indexed": false,
          "internalType": "uint256",
          "name": "_amount",
          "type": "uint256"
        }
      ],
      "name": "OwnershipExtension",
      "type": "event"
    },
    {
      "anonymous": false,
      "inputs": [
        {
          "indexed": false,
          "internalType": "address",
          "name": "_stakeholder",
          "type": "address"
        },
        {
          "indexed": false,
          "internalType": "uint256",
          "name": "_amount",
          "type": "uint256"
        },
        {
          "indexed": false,
          "internalType": "uint256",
          "name": "_optionId",
          "type": "uint256"
        },
        {
          "indexed": false,
          "internalType": "uint256",
          "name": "_start",
          "type": "uint256"
        }
      ],
      "name": "Register",
      "type": "event"
    },
    {
      "anonymous": false,
      "inputs": [
        {
          "indexed": false,
          "internalType": "address",
          "name": "_stakeholder",
          "type": "address"
        },
        {
          "indexed": false,
          "internalType": "uint256",
          "name": "_at",
          "type": "uint256"
        }
      ],
      "name": "Unregister",
      "type": "event"
    },
    {
      "anonymous": false,
      "inputs": [
        {
          "indexed": false,
          "internalType": "address",
          "name": "_worker",
          "type": "address"
        },
        {
          "indexed": false,
          "internalType": "bool",
          "name": "_isAuthorized",
          "type": "bool"
        }
      ],
      "name": "UpdateWorker",
      "type": "event"
    },
    {
      "anonymous": false,
      "inputs": [
        {
          "indexed": false,
          "internalType": "address",
          "name": "owner",
          "type": "address"
        },
        {
          "indexed": false,
          "internalType": "uint256",
          "name": "_valueToReturn",
          "type": "uint256"
        }
      ],
      "name": "Withdraw",
      "type": "event"
    },
    {
      "inputs": [
        {
          "internalType": "uint256",
          "name": "_optionId",
          "type": "uint256"
        }
      ],
      "name": "claimReward",
      "outputs": [],
      "stateMutability": "nonpayable",
      "type": "function"
    },
    {
      "inputs": [],
      "name": "dailyPayment",
      "outputs": [
        {
          "internalType": "uint256",
          "name": "",
          "type": "uint256"
        }
      ],
      "stateMutability": "view",
      "type": "function"
    },
    {
      "inputs": [
        {
          "internalType": "uint256",
          "name": "_amount",
          "type": "uint256"
        }
      ],
      "name": "extendOwnership",
      "outputs": [],
      "stateMutability": "nonpayable",
      "type": "function"
    },
    {
      "inputs": [],
      "name": "listingId",
      "outputs": [
        {
          "internalType": "uint256",
          "name": "",
          "type": "uint256"
        }
      ],
      "stateMutability": "view",
      "type": "function"
    },
    {
      "inputs": [
        {
          "internalType": "uint256",
          "name": "",
          "type": "uint256"
        }
      ],
      "name": "options",
      "outputs": [
        {
          "internalType": "uint256",
          "name": "_totalStake",
          "type": "uint256"
        },
        {
          "internalType": "uint256",
          "name": "_reward",
          "type": "uint256"
        },
        {
          "internalType": "bool",
          "name": "_isSet",
          "type": "bool"
        }
      ],
      "stateMutability": "view",
      "type": "function"
    },
    {
      "inputs": [],
      "name": "owner",
      "outputs": [
        {
          "internalType": "address",
          "name": "",
          "type": "address"
        }
      ],
      "stateMutability": "view",
      "type": "function"
    },
    {
      "inputs": [],
      "name": "ownership",
      "outputs": [
        {
          "internalType": "uint256",
          "name": "",
          "type": "uint256"
        }
      ],
      "stateMutability": "view",
      "type": "function"
    },
    {
      "inputs": [
        {
          "internalType": "uint256",
          "name": "_amount",
          "type": "uint256"
        },
        {
          "internalType": "uint256",
          "name": "_optionId",
          "type": "uint256"
        },
        {
          "internalType": "bool",
          "name": "_increase",
          "type": "bool"
        }
      ],
      "name": "register",
      "outputs": [],
      "stateMutability": "nonpayable",
      "type": "function"
    },
    {
      "inputs": [],
      "name": "rewardPool",
      "outputs": [
        {
          "internalType": "uint256",
          "name": "",
          "type": "uint256"
        }
      ],
      "stateMutability": "view",
      "type": "function"
    },
    {
      "inputs": [
        {
          "internalType": "uint256",
          "name": "_optionId",
          "type": "uint256"
        },
        {
          "internalType": "uint256",
          "name": "_reward",
          "type": "uint256"
        }
      ],
      "name": "setupOptionReward",
      "outputs": [],
      "stateMutability": "nonpayable",
      "type": "function"
    },
    {
      "inputs": [
        {
          "internalType": "uint256",
          "name": "",
          "type": "uint256"
        },
        {
          "internalType": "address",
          "name": "",
          "type": "address"
        }
      ],
      "name": "stakings",
      "outputs": [
        {
          "internalType": "uint256",
          "name": "_start",
          "type": "uint256"
        },
        {
          "internalType": "uint256",
          "name": "_amount",
          "type": "uint256"
        },
        {
          "internalType": "bool",
          "name": "_active",
          "type": "bool"
        }
      ],
      "stateMutability": "view",
      "type": "function"
    },
    {
      "inputs": [],
      "name": "tokenContract",
      "outputs": [
        {
          "internalType": "address",
          "name": "",
          "type": "address"
        }
      ],
      "stateMutability": "view",
      "type": "function"
    },
    {
      "inputs": [],
      "name": "totalStake",
      "outputs": [
        {
          "internalType": "uint256",
          "name": "",
          "type": "uint256"
        }
      ],
      "stateMutability": "view",
      "type": "function"
    },
    {
      "inputs": [
        {
          "internalType": "uint256",
          "name": "_optionId",
          "type": "uint256"
        }
      ],
      "name": "unregister",
      "outputs": [],
      "stateMutability": "nonpayable",
      "type": "function"
    },
    {
      "inputs": [
        {
          "internalType": "uint256",
          "name": "_dailyPayment",
          "type": "uint256"
        }
      ],
      "name": "updateDailyPayment",
      "outputs": [],
      "stateMutability": "nonpayable",
      "type": "function"
    },
    {
      "inputs": [
        {
          "internalType": "address",
          "name": "_newOwner",
          "type": "address"
        }
      ],
      "name": "updateOwner",
      "outputs": [],
      "stateMutability": "nonpayable",
      "type": "function"
    },
    {
      "inputs": [
        {
          "internalType": "address",
          "name": "_validator",
          "type": "address"
        }
      ],
      "name": "updateValidator",
      "outputs": [],
      "stateMutability": "nonpayable",
      "type": "function"
    },
    {
      "inputs": [
        {
          "internalType": "uint256",
          "name": "_value",
          "type": "uint256"
        }
      ],
      "name": "updateValue",
      "outputs": [],
      "stateMutability": "nonpayable",
      "type": "function"
    },
    {
      "inputs": [
        {
          "internalType": "address",
          "name": "_worker",
          "type": "address"
        }
      ],
      "name": "updateWorker",
      "outputs": [],
      "stateMutability": "nonpayable",
      "type": "function"
    },
    {
      "inputs": [
        {
          "internalType": "uint256",
          "name": "_listingId",
          "type": "uint256"
        }
      ],
      "name": "updatelistingId",
      "outputs": [],
      "stateMutability": "nonpayable",
      "type": "function"
    },
    {
      "inputs": [],
      "name": "validator",
      "outputs": [
        {
          "internalType": "address",
          "name": "",
          "type": "address"
        }
      ],
      "stateMutability": "view",
      "type": "function"
    },
    {
      "inputs": [],
      "name": "value",
      "outputs": [
        {
          "internalType": "uint256",
          "name": "",
          "type": "uint256"
        }
      ],
      "stateMutability": "view",
      "type": "function"
    },
    {
      "inputs": [],
      "name": "withdraw",
      "outputs": [],
      "stateMutability": "nonpayable",
      "type": "function"
    },
    {
      "inputs": [
        {
          "internalType": "address",
          "name": "",
          "type": "address"
        }
      ],
      "name": "workers",
      "outputs": [
        {
          "internalType": "bool",
          "name": "",
          "type": "bool"
        }
      ],
      "stateMutability": "view",
      "type": "function"
    }
  ],
  "bytecode": "0x608060405234801561001057600080fd5b5060405161151e38038061151e83398101604081905261002f91610093565b600080546001600160a01b039384166001600160a01b0319918216179091556002805494909316938116939093179091556001554260045560038054909116331790556100ce565b80516001600160a01b038116811461008e57600080fd5b919050565b6000806000606084860312156100a7578283fd5b6100b084610077565b92506100be60208501610077565b9150604084015190509250925092565b611441806100dd6000396000f3fe608060405234801561001057600080fd5b50600436106101285760003560e01c8063103a62ba1461012d5780632a421332146101425780633a5381b5146101a15780633ccfd60b146101c15780633fa4f245146101c95780634048a257146101e0578063409e2205146102135780634338fbaa14610245578063506f50bc1461024e57806354a499021461026157806355a373d614610274578063573c0bd3146102875780635d03147a1461029a578063635b2770146102a357806366666aa9146102b657806380e4cc9d146102bf578063880cdc31146102d25780638b0e9f3f146102e55780638da5cb5b146102ee5780639405dfdd14610301578063a02b161e1461030a578063a5edfb531461031d578063ae169a5014610330578063c24be7fb14610343575b600080fd5b61014061013b36600461114e565b610356565b005b61017f61015036600461117e565b600960209081526000928352604080842090915290825290208054600182015460029092015490919060ff1683565b6040805193845260208401929092521515908201526060015b60405180910390f35b6002546101b4906001600160a01b031681565b6040516101989190611202565b61014061038e565b6101d260055481565b604051908152602001610198565b6102036101ee3660046110df565b60076020526000908152604090205460ff1681565b6040519015158152602001610198565b61017f61022136600461114e565b60086020526000908152604090208054600182015460029092015490919060ff1683565b6101d260065481565b61014061025c36600461114e565b61053b565b61014061026f3660046111a9565b61056a565b6003546101b4906001600160a01b031681565b61014061029536600461114e565b61060d565b6101d260045481565b6101406102b13660046110df565b61063c565b6101d2600a5481565b6101406102cd3660046110df565b610688565b6101406102e03660046110df565b61076a565b6101d2600b5481565b6000546101b4906001600160a01b031681565b6101d260015481565b61014061031836600461114e565b610800565b61014061032b36600461114e565b610973565b61014061033e36600461114e565b610b20565b6101406103513660046111ca565b610d13565b6002546001600160a01b031633146103895760405162461bcd60e51b8152600401610380906112e1565b60405180910390fd5b600655565b6000546001600160a01b031633146103b85760405162461bcd60e51b8152600401610380906112e1565b4260045410156104085760405162461bcd60e51b815260206004820152601b60248201527a4c697374696e673a204f776e65727368697020657870697265642160281b6044820152606401610380565b600061043160065461042b620151804260045461042591906113cd565b90610f91565b90610fa4565b60035460405163e9dc65bb60e01b81529192506000916001600160a01b039091169063e9dc65bb9061046b9033908690869060040161122f565b602060405180830381600087803b15801561048557600080fd5b505af1158015610499573d6000803e3d6000fd5b505050506040513d601f19601f820116820180604052508101906104bd91906110f9565b9050806104dc5760405162461bcd60e51b81526004016103809061133f565b6000546040517f884edad9ce6fa2440d8a54cc123490eb96d2768479d49ff9c7366125a94243649161051b916001600160a01b03909116908590611216565b60405180910390a1600a546105309083610fb0565b600a55505042600455565b6002546001600160a01b031633146105655760405162461bcd60e51b8152600401610380906112e1565b600155565b6002546001600160a01b031633146105945760405162461bcd60e51b8152600401610380906112e1565b60648111156105e55760405162461bcd60e51b815260206004820152601d60248201527f4c697374696e673a20496e76616c6964207265776172642076616c75650000006044820152606401610380565b600091825260086020526040909120600180820192909255600201805460ff19169091179055565b6002546001600160a01b031633146106375760405162461bcd60e51b8152600401610380906112e1565b600555565b6002546001600160a01b031633146106665760405162461bcd60e51b8152600401610380906112e1565b600280546001600160a01b0319166001600160a01b0392909216919091179055565b6000546001600160a01b031633146106b25760405162461bcd60e51b8152600401610380906112e1565b4260045410156107015760405162461bcd60e51b815260206004820152601a602482015279131a5cdd1a5b99ce8813dddb995c9cda1a5c08195e1c1a5c995960321b6044820152606401610380565b6001600160a01b038116600081815260076020908152604091829020805460ff8082161560ff1990921682179092558351948552161515908301527f988d040d21ebfc430db6cf3c20bc0a6f4ff9d36f2cb7c6dea70424a709746734910160405180910390a150565b6002546001600160a01b031633146107945760405162461bcd60e51b8152600401610380906112e1565b42600454106107de5760405162461bcd60e51b81526020600482015260166024820152754f776e657273686970206e6f7420657870697265642160501b6044820152606401610380565b600080546001600160a01b0319166001600160a01b0392909216919091179055565b60035460405163e6d50cd760e01b81526000916001600160a01b03169063e6d50cd790610831903090600401611202565b604080518083038186803b15801561084857600080fd5b505afa15801561085c573d6000803e3d6000fd5b505050506040513d601f19601f820116820180604052508101906108809190611115565b915050806108a05760405162461bcd60e51b81526004016103809061130b565b60008281526009602090815260408083203384529091529020600281015460ff166108dd5760405162461bcd60e51b815260040161038090611278565b60018101546000848152600860205260409020546108fa91610fb0565b6000848152600860205260409020556001810154600b5461091a91610fb0565b600b5560006001820181905560028201805460ff1916905581556040517f46d17c3a7286a693e0dc0769e261984d3981e0f266eda030d0b63bcaa23e776d906109669033904290611216565b60405180910390a1505050565b6000546001600160a01b031633148061098d575042600454105b6109a95760405162461bcd60e51b8152600401610380906112e1565b60035460405163e9dc65bb60e01b81526000916001600160a01b03169063e9dc65bb906109df903390869060019060040161122f565b602060405180830381600087803b1580156109f957600080fd5b505af1158015610a0d573d6000803e3d6000fd5b505050506040513d601f19601f82011682018060405250810190610a3191906110f9565b905080610a505760405162461bcd60e51b81526004016103809061133f565b6004546000546001600160a01b031642821015610a7d57600080546001600160a01b031916331790554291505b600a54610a8a9085610fbc565b600a55600654600090610a9e908690610f91565b9050610ab7610ab08262015180610fa4565b8490610fbc565b6004819055600054604080516001600160a01b038087168252909216602083015281018590526060810191909152608081018690527fef4746b8d8b529d352fbea5e8f5194179982c1cb712ce4e35c471cfeaefb8bb49060a00160405180910390a15050505050565b60008181526009602090815260408083203384529091529020600281015460ff16610b5d5760405162461bcd60e51b815260040161038090611278565b6003546040516370a0823160e01b81526000916001600160a01b0316906370a0823190610b8e903390600401611202565b60206040518083038186803b158015610ba657600080fd5b505afa158015610bba573d6000803e3d6000fd5b505050506040513d601f19601f82011682018060405250810190610bde9190611166565b90508160010154811015610c045760405162461bcd60e51b8152600401610380906112aa565b6000610c108484610fc8565b60035460405163e9dc65bb60e01b81529192506000916001600160a01b039091169063e9dc65bb90610c4a9033908690869060040161122f565b602060405180830381600087803b158015610c6457600080fd5b505af1158015610c78573d6000803e3d6000fd5b505050506040513d601f19601f82011682018060405250810190610c9c91906110f9565b905080610cbb5760405162461bcd60e51b81526004016103809061133f565b83546040517f45c072aa05b9853b5a993de7a28bc332ee01404a628cec1a23ce0f659f842ef191610cf191339186914290611252565b60405180910390a1428455600a54610d099083610fb0565b600a555050505050565b60035460405163e6d50cd760e01b81526000916001600160a01b03169063e6d50cd790610d44903090600401611202565b604080518083038186803b158015610d5b57600080fd5b505afa158015610d6f573d6000803e3d6000fd5b505050506040513d601f19601f82011682018060405250810190610d939190611115565b91505080610db35760405162461bcd60e51b81526004016103809061130b565b60008381526008602052604090206002015460ff16610e145760405162461bcd60e51b815260206004820152601d60248201527f4c697374696e673a204f7074696f6e206e6f7420617661696c61626c650000006044820152606401610380565b6003546040516370a0823160e01b81526000916001600160a01b0316906370a0823190610e45903390600401611202565b60206040518083038186803b158015610e5d57600080fd5b505afa158015610e71573d6000803e3d6000fd5b505050506040513d601f19601f82011682018060405250810190610e959190611166565b905084811015610eb75760405162461bcd60e51b8152600401610380906112aa565b6000848152600960209081526040808320338452909152902083610ee9576001810154610ee49087610fb0565b610ef8565b6001810154610ef89087610fbc565b60018083019190915542825560028201805460ff19169091179055600085815260086020526040902054610f2c9087610fbc565b600086815260086020526040902055600b54610f489087610fbc565b600b556040517fb1ff33da568b8aef91249b2b57eb76b04eba1f8643e8bef5914442dbd7ccb2bf90610f81903390899089904290611252565b60405180910390a1505050505050565b6000610f9d828461138e565b9392505050565b6000610f9d82846113ae565b6000610f9d82846113cd565b6000610f9d8284611376565b600080610fe76005546104256064600b54610fa490919063ffffffff16565b90506056811115610ff6575060565b426004541080156110075750603281115b15611010575060325b600061102c606461042584600654610fa490919063ffffffff16565b60008681526008602090815260408083208151606081018352815480825260018084015495830186905260029093015460ff16151593820193909352908901549495509361108992610425919061042b9060649084908a90610fa4565b90506000620151808760000154426110a191906113cd565b6110ab919061138e565b90506110b78282610fa4565b98975050505050505050565b80356001600160a01b03811681146110da57600080fd5b919050565b6000602082840312156110f0578081fd5b610f9d826110c3565b60006020828403121561110a578081fd5b8151610f9d816113fa565b60008060408385031215611127578081fd5b8251611132816113fa565b6020840151909250611143816113fa565b809150509250929050565b60006020828403121561115f578081fd5b5035919050565b600060208284031215611177578081fd5b5051919050565b60008060408385031215611190578182fd5b823591506111a0602084016110c3565b90509250929050565b600080604083850312156111bb578182fd5b50508035926020909101359150565b6000806000606084860312156111de578081fd5b833592506020840135915060408401356111f7816113fa565b809150509250925092565b6001600160a01b0391909116815260200190565b6001600160a01b03929092168252602082015260400190565b6001600160a01b0393909316835260208301919091521515604082015260600190565b6001600160a01b0394909416845260208401929092526040830152606082015260800190565b6020808252601890820152774c697374696e673a2052656769737465722066697273742160401b604082015260600190565b6020808252601e908201527f4c697374696e673a20496e73756666696369656e742062616c616e6365210000604082015260600190565b60208082526010908201526f4c697374696e673a20556e617574682160801b604082015260600190565b6020808252601a90820152794c697374696e673a20496e616374697665206c697374696e672160301b604082015260600190565b6020808252601e908201527f4c697374696e673a20556e7375636365737366756c20617474656d7074210000604082015260600190565b60008219821115611389576113896113e4565b500190565b6000826113a957634e487b7160e01b81526012600452602481fd5b500490565b60008160001904831182151516156113c8576113c86113e4565b500290565b6000828210156113df576113df6113e4565b500390565b634e487b7160e01b600052601160045260246000fd5b801515811461140857600080fd5b5056fea2646970667358221220a3a51e8542b5ee078afa1b716a3d4624c8edf033868359a5aa9e370d313c924064736f6c63430008040033",
  "linkReferences": {},
  "deployedLinkReferences": {}
}